:020000040800F2
:10000000B8A600201D030008A91901085DFE00081C
:100010004D170108F960000869BB0108EF020008EC
:10002000000000000000000000000000ED87010853
:10003000ED6400080000000011360108ED8A010897
:10004000F9020008F90200085D380108F902000809
:10005000F9020008F9020008F9020008F902000894
:10006000F90200083D360108F9020008F90200080B
:10007000F9020008F9020008F9020008F902000874
:10008000F9020008F9020008F9020008F902000864
:10009000F9020008F9020008F9020008F902000854
:1000A000F9020008F9020008F9020008F902000844
:1000B000F9020008ADA20008B9A20008F902000880
:1000C000F9020008F9020008F9020008F902000824
:1000D000F9020008F9020008F9020008F902000814
:1000E000F9020008F9020008F9020008F902000804
:1000F000F9020008F902000841AF0108F9020008FE
:10010000F9020008F9020008F9020008418D01080F
:10011000F9020008F9020008F9020008F9020008D3
:10012000F9020008F9020008F9020008F9020008C3
:10013000F902000899F50008F1350108F9020008F4
:10014000F9020008F902000815360108A9BB0108E8
:10015000F9020008F9020008F9020008F902000893
:1001600000F002F800F0B0F80AA090E8000C824419
:100170008344AAF10107DA4501D100F0A5F8AFF2F6
:10018000090EBAE80F0013F0010F18BFFB1A43F075
:1001900001031847E86A0300086B03000A444FF0A4
:1001A000000C10F8013B13F0070408BF10F8014BD6
:1001B0001D1108BF10F8015B641E05D010F8016B1B
:1001C000641E01F8016BF9D113F0080F1EBF10F87F
:1001D000014BAD1C0C1B09D16D1E58BF01F801CBA2
:1001E000FAD505E014F8016B01F8016B6D1EF9D525
:1001F0009142D6D37047000000230024002500263A
:10020000103A28BF78C1FBD8520728BF30C148BF79
:100210000B6070476E2900F08383702900F0CD8455
:10022000662933F09F85652933F09C85672933F073
:100230009985612933F0988503681B0A28BF41F02E
:100240008001692900F03083642900F02D8375292D
:1002500000F02A836F2900F05B84782900F09984EC
:10026000E92900F0F583E42900F0F283F52900F094
:10027000EF83EF2900F05884F82900F09884036890
:10028000DB0928BF41F08001632901F0CF81732988
:1002900001F0D481E32901F0DF81F32901F0E48149
:1002A000002070471FB533F050FD01F037FA04000D
:1002B0000020002133F0BCFC401C606000200021C5
:1002C00033F0A0FCE0601FBD01F0FAF91146FFF722
:1002D000E9FF2DF087FD21F0B7FF00000A488047B5
:1002E0000A480047FEE7FEE7FEE7FEE7FEE7FEE717
:1002F000FEE7FEE7FEE7FEE7FEE7000004480549EB
:10030000034A054B70470000B98C010861010008E1
:10031000B8960020B8A60020B896002024F080F8F7
:1003200001280CD08AB015488047154800472DE9B0
:10033000F05F144C6B462360BFF34F8F30BF114CFE
:100340002468A546BDE8F09F0F481049096850F899
:10035000042B126804B40139F9D170470A480B49DB
:100360000968A1F1010100EB810001F1010150F8E0
:10037000042908BC13600139F9D17047B98C010810
:1003800061010008BC600020EC450308F445030847
:1003900053EA020C00F069802DE9F04B4FF00006A3
:1003A000002B1FBFB3FA83F503FA05F424FA05F610
:1003B0005E4012BF1643B2FA82F502FA05F4C5F1A7
:1003C00020051EBF22FA05FC44EA0C04203556EA3B
:1003D000044C4FEA144418BF641C4FF000084FF05F
:1003E0000009904271EB030C39D3002919BFB1FA0F
:1003F00081F701FA07F6B0FA80F700FA07F6C7F1BD
:1004000020071EBF20FA07FC46EA0C062037B6FB81
:10041000F4FCA7EB0507103F07F01F0BCBF12006FC
:100420002CFA06F60CFA0BFB44BFB3460026202F2D
:10043000A4BF5E464FF0000B5BEA060C08BF4FF00E
:10044000010B19EB0B0948EB0608ABFB027C06FB22
:1004500002CC0BFB03CCC01B71EB0C01C1E70B46BC
:10046000024641464846BDE8F08B13B5084318BF25
:100470004FF0FF300146AFF30080BDE81C407047ED
:100480007CB51D4616460C00009001D02044401E4D
:10049000074B7B442A4669460190304600F059FAE2
:1004A00005461CB10020694600F066FA28467CBD6E
:1004B000ED04000040EA010310B59B070FD1042AA8
:1004C0000DD310C808C9121F9C42F8D020BA19BA1F
:1004D000884201D9012010BD4FF0FF3010BD1AB184
:1004E000D30703D0521C07E0002010BD10F8013BD9
:1004F00011F8014B1B1B07D110F8013B11F8014B00
:100500001B1B01D1921EF1D1184610BD40EA010318
:1005100070B59B072ED14FF00136042A2AD308C8A4
:1005200010C99D1B9D43121F15EAC61517D0D8B2DE
:10053000E1B2401A50EA056110D198B2A1B2401A56
:1005400050EA05410AD123F07F4024F07F41401A50
:1005500050EA052102D1180EA0EB146070BDA34231
:10056000DBD018BA21BA884201D9012070BD4FF002
:10057000FF3070BD0AB9002070BD10F8013B11F8C2
:10058000014B63B1A3420AD1521E08D010F8013BBF
:1005900011F8014B1BB1A34201D1521EEDD1181B22
:1005A00070BD032A40F2308010F0030C00F015807B
:1005B00011F8013BBCF1020F624498BF11F801CB66
:1005C00000F8013B38BF11F8013BA2F1040298BFCB
:1005D00000F801CB38BF00F8013B11F0030300F035
:1005E000BB83083AC0F0088051F8043B083A51F840
:1005F00004CBA0E80810F5E7121D5CBF51F8043BDE
:1006000040F8043BAFF30080D20724BF11F8013B50
:1006100011F801CB48BF11F8012B24BF00F8013BB2
:1006200000F801CB48BF00F8012B7047431A28BFE0
:100630009A4240F291831044114410F0030F1EBF00
:1006400011F8013D521E00F8013D10F0030F7FF438
:10065000F6AF103AC0F00A8010B531E9185020E921
:100660001850103ABFF4F9AFBDE81040530724BF4B
:1006700031E9081020E9081044BF51F8043D40F862
:10068000043D12F0030F08BF7047D20728BF31F8AE
:10069000023D48BF11F8012C28BF20F8023D48BF99
:1006A00000F8012C704702F0FF0343EA032242EAFC
:1006B000024200F002B84FF000020429C0F012809C
:1006C00010F0030C00F01B80CCF1040CBCF1020F05
:1006D00018BF00F8012BA8BF20F8022BA1EB0C01DA
:1006E00000F00DB85FEAC17C24BF00F8012B00F8D0
:1006F000012B48BF00F8012B70474FF0000200B5F6
:10070000134694469646203922BFA0E80C50A0E834
:100710000C50B1F12001BFF4F7AF090728BFA0E8E2
:100720000C5048BF0CC05DF804EB890028BF40F8AE
:10073000042B08BF704748BF20F8022B11F0804FF0
:1007400018BF00F8012B70474FF0013C50F8042B04
:1007500051F8043B9A4221D1A2EB0C03934313EAD4
:10076000CC1317D150F8042B51F8043B9A4215D101
:10077000A2EB0C03934313EACC130BD150F8042BD8
:1007800051F8043B9A4209D1A2EB0C03934313EABC
:10079000CC13DBD04FF00000704700BFD01A01BA75
:1007A000B1FA81F101F0180122FA01F0CB40DBB27D
:1007B000C0B2C01AC1F120012CFA01F3D11A914341
:1007C00011EAC311E6D1704770477047704710B502
:1007D00000F0F4FA006810BD10B5044600F0EEFA1F
:1007E000046010BD70B5044685690068C10601D576
:1007F000302600E02026C00707D070BDD4E90121D3
:1008000030469047206A401C20626D1EF6D570BDB0
:1008100070B5044685690078C00707D170BDD4E97A
:10082000012120209047206A401C20626D1EF6D5D1
:1008300070BD09684A0501D540B27047C905FCD5AD
:1008400000B2704709684A0501D5C0B27047C905B2
:10085000FCD580B2704770B50C460546012A05D01C
:100860002878800600D5EA69002302E0012305E02C
:100870005B1C934202D2E05C0028F9D1A869E6181B
:10088000C01AA861286A184428622846FFF7AAFF00
:1008900004E0D5E9012114F8010B9047B442F8D3E4
:1008A0002846FFF7B5FF70BD2DE9F041064600244C
:1008B00010687529314616A510D0FFF7BAFF002839
:1008C00002DA404213A507E031688A0701D512A574
:1008D00002E0490704D511A5012401E0FFF7B2FFAA
:1008E00000210A2206F1240709E0B0FBF2FCB0FB6C
:1008F000F2F302FB1C00303078541846491C0028E3
:10090000F3D123462A463046BDE8F04100F09FBAB5
:10091000000000002D0000002B000000200000005F
:1009200011680268006A530501D508700AE0D30512
:1009300001D5088006E0130603D5C217C1E90002FD
:1009400000E008600120704701694A1C02610878D4
:10095000704700B58FB0CDE90131002105910549FF
:100960007944CDE903101146684600F031F90FB023
:1009700000BD0000E5FFFFFF0A6802F8010B0A60F6
:100980007047D1E900239A4202D2531C0B601070C9
:10099000704700002DE9FF5F15468A460446DFF8E0
:1009A000AC80F8440027D8E900103E46CDE900109D
:1009B00010E05AF826106A4602A800F059FE411CC1
:1009C00007D02178890603D5E269391891420DD8FC
:1009D0000744761C2078800602D5E069B84205DD20
:1009E000AE42E6DB5AF826000028E2D1A069C01B1F
:1009F000A0612046FFF7F6FED8E90010CDE900100F
:100A0000002017E05AF828106A4602A800F030FECD
:100A1000B0F1FF3F81460BD000250DF1080B05E03A
:100A2000D4E901211BF8050090476D1C4D45F7D313
:100A300008F10100B0428046E4DB206A38442062BD
:100A40002046FFF7E5FEBDE8FF9F0000C633030028
:100A50002DE9F0418046D21D22F007020025D2E99F
:100A60000002F52915A614D0011E72F1000106DA64
:100A70000023D0EB030063EB020211A608E0D8F8D4
:100A800000108B0701D50FA602E0490701D50EA67D
:100A900001251146002408F1240704E000F092F932
:100AA00030323A55641C50EA0102F7D12B463246E7
:100AB00021464046BDE8F04100F0C9B90000000001
:100AC0002D0000002B0000002000000030B40021A9
:100AD00000F1240408E002F00705D208303542EAAC
:100AE0004372DB086554491C52EA0305F3D10468DC
:100AF000002310A2250708D504F020040C4304D0DD
:100B0000C46901230CA2641EC46130BC00F09FB90B
:100B100010B5044621461068FFF794FE02462046B1
:100B2000BDE810400023D1E7D21D22F00701D1E932
:100B30000023CBE70000000030000000F0B40D46B9
:100B40000188090502D5214C7C4402E01F4C7C44FD
:100B50000E34002100F1240608E002F00F0712090C
:100B6000E75D42EA03721B097754491C52EA030706
:100B7000F3D102780023120704D5702D06D009B1F5
:100B8000022311342246F0BC00F061B90123103475
:100B9000F8E770B504460D4621461068FFF752FE8F
:100BA000024629462046BDE870400023C6E7D21D14
:100BB00022F00703D3E90023C0E70368126843F07B
:100BC000200303600823C3610023B7E72832030032
:100BD0002DE9F05F894604464FF0000ADFF874B152
:100BE000FB44C0F820A02046E1688847002874D064
:100BF000252806D0D4E901219047206A401C2062B4
:100C0000F1E700265F462046E16888472028054630
:100C100007DB312D05D2781910F8200C08B10643F6
:100C2000F1E7B00701D526F00406C4F81CA00027A0
:100C3000C4F818A02A2D09D0284632F0DCFF38B3BA
:100C400004EB8708303DC8F8185019E059F8041B28
:100C5000204604EB87029161E1688847012F054631
:100C600018D1E069002820DA26F020061DE0D8F827
:100C7000180000EB800005EB40003038C8F8180081
:100C80002046E1688847054632F0B5FF0028EED1DE
:100C9000012F0AD02E2D08D12046E16888477F1CFD
:100CA0000546022F46F02006C4DBA069002803DABF
:100CB000404246F00106A061F00701D026F0100680
:100CC0006C2D0BD0682D09D04C2D39D06A2D35D024
:100CD000742D35D07A2D33D016E038E0E1682F46F8
:100CE00020468847B842054609D16C2F26D04FF4DC
:100CF0008060E168064320468847054604E06C2F83
:100D00001AD04FF4807006430DB3A5F141001928A5
:100D100002D8203546F400664A4629462046266019
:100D20004E46FFF777FA80B101280BD0F61D26F06A
:100D3000070000F1080956E74020E4E78020D8E7E3
:100D40000020D6E706F104094DE7284652E7206A5D
:100D5000BDE8F09FB831030010B5203AC0F00B8019
:100D6000B1E81850A0E81850B1E81850A0E81850A1
:100D7000203ABFF4F5AF5FEA027C24BFB1E8185017
:100D8000A0E8185044BF18C918C0BDE810405FEA79
:100D9000827C24BF51F8043B40F8043B08BF7047F5
:100DA000D20728BF31F8023B48BF11F8012B28BFFA
:100DB00020F8023B48BF00F8012B704700487047FD
:100DC0008034002030B5B0F10A0271F100034FEA1F
:100DD000900E4EEA817EB0EB0E0061EB91014FEA7E
:100DE000101E4EEA017E10EB0E0041EB11114FEA8E
:100DF000102E4EEA016E10EB0E0041EB11214FEA6E
:100E0000104E4EEA014E10EB0E0041EB114140181E
:100E100041F100014FEAD00040EA41704FEAD101B0
:100E20004FEA810444EA907410EB800544EB01041E
:100E30006D1944EB0404521BA3414FF0000348BF5B
:100E40000A3200D530BD401C41F1000130BD2DE912
:100E5000F0470D4699469246044600F12408016881
:100E6000880604D5E06921F01001216000E001202E
:100E7000A84201DD471B00E00027A1697A1902EBB7
:100E80000900081AA0612078C00602D42046FFF7A6
:100E9000A9FC002608E0D4E901211AF806009047D1
:100EA000206A401C761C20624E45F4DB2078C00688
:100EB0000AD52046FFF796FC06E0D4E90121302050
:100EC0009047206A401C2062381EA7F10107F4DC1D
:100ED00007E0D4E9012118F805009047206A401C7A
:100EE0002062281EA5F10105F3DC2046FFF790FCE7
:100EF0002078000602D50220BDE8F0870120FBE73C
:100F00002DE9FF4F0C461E464FF0FF378BB0D2E95C
:100F10000001DDF860800A908A46C1F30A5505B9E0
:100F20003D46002108464FF00000BAF1000F00F4E2
:100F3000400005DA00EB80004FF4400101EA500068
:100F40004FEA9059B9F1010F00DDB9460A9850EA0D
:100F50004A000ED044F61050A5F2FF3545432F1439
:100F6000B8F1000F1ED07542291E1EDDC9F1000226
:100F70001CE0B8F1010F4FF0000001D0302103E078
:100F8000F24305E02154401CB042FBDB3046002216
:100F9000002121540B99C1F80880C1E900200FB04D
:100FA000BDE8F08FBD1B6D1CDEE74A4600DA6942E2
:100FB00006A800F0F7FB06AB93E8070003AB83E855
:100FC000070050460A9932F018FA8DE80700A0F59C
:100FD00000501F3800900398002D0ADD42F21F01D7
:100FE0004A460844002303A90390684632F082FC75
:100FF00009E0A0F500504A461F38002303A90390DA
:10100000684632F08CFC8DE807000004000C03D029
:101010004FF0FF30410800E01046B8F1000F03D058
:101020000022009215461EE0751E05D4FFF7CAFE89
:10103000303262556D1EF9D5B3460122084302D005
:1010400000227F1C04E02078302801D100227F1E7E
:10105000002A099784D01DE0112D07DAFFF7B2FEB0
:10106000303262556D1C50EA0102F5D1084302D0BE
:101070000098C8B10EE00021681E05E0235C625CA8
:1010800063542254401E491C8142F7DBAB46A81B27
:10109000401E0990002004F80B000B98099AC0F834
:1010A0000880C0E9002B7AE711264FF0000857E7C7
:1010B0002DE9F04F88460446D21D22F0070191B079
:1010C000D1E90001CDE90A0132F060FD02460B983A
:1010D000C00F01D02D2007E02068810701D52B200B
:1010E00002E0202101EAC000032A099001D0072A6A
:1010F00005DB03464146204600F014FB0BE1207857
:10110000800601D5E06900E00620B8F1650F814650
:1011100006D0B8F1660F18D0B8F1670F70D131E082
:101120000020B9F1110F009001DB112301E009F15A
:1011300001030AAA01A90CA8FFF7E2FEDDE90C7081
:10114000002609F10105834647E001204B46009047
:101150004FF000470AAA01A90CA8FFF7D1FEDDE96C
:101160000DB00C995D46002610B909F101000D186B
:10117000B9EB050003D4C0F1FF3609F10105A5EB79
:1011800009002BE0B9F1010F01DA4FF0010900204D
:10119000B9F1110F0090484601DD112300E003462C
:1011A0000AAA01A90CA8FFF7ABFEDDE90C704D46B9
:1011B00000268346207800070AD4AB4500DA5D4656
:1011C00001A8012D04DD411911F8011C302907D0B7
:1011D0004F4502DA17F1040F04DA012082460FE0CE
:1011E0006D1EEEE7002F02DCED1B3E4403E0781C91
:1011F000A84200DD7D1CB81B00F1010A4FF000473A
:101200002078000703D4AA4501DB4FF0FF3A002104
:10121000B7F1004F0DF143088DF8431024D00220A0
:101220002B23002F01DA7F422D230A21021EA0F179
:10123000010000DC5FB197FBF1FC97FBF1F201FBD1
:101240001C7C17460CF1300C08F801CDEEE7A8F134
:10125000010003702188090501D5452100E06521C1
:10126000A0F1010800F8011C09980FA9A1EB0807DB
:10127000FF1D00B10120411901EBEA70A16938445A
:10128000081A401EA0612078C00602D42046FFF74D
:10129000A9FA099828B1D4E901219047206A401C95
:1012A00020622078C00622D52046FFF79BFA1EE078
:1012B000002E04DBB34502DD01A8805D00E0302094
:1012C000D4E901219047206A401C2062761CAAF1D3
:1012D00001005FEA000A0AD100F020FAC068016844
:1012E000405CD4E901219047206A401C2062281EFE
:1012F000A5F10105DCDC07E0D4E9012118F8010BB8
:101300009047206A401C2062381EA7F10107F3DCD9
:101310002046FFF77DFA032011B041E62DE9F04F9A
:1013200004460D46D21D22F0070089B0D0E900978F
:101330004846394632F02AFC0246F80F01D02D23E8
:1013400007E02068810701D52B2302E0202101EA74
:10135000C0038DF820300BB1012000E00020032AEB
:10136000824601D0072A04DB2946204600F0DAF93C
:101370003FE12078800601D40D2500E0E569C7F340
:101380000A560D2D49DA00214FEA175B08464FF047
:101390000000002F00F4400007DA00EB80004FF45B
:1013A000400100EBD07001EA60008115012901DDE8
:1013B0004FF0FF3100224FEA850CBCF1180F06D325
:1013C0001346ACF118004FF08052C24003E04FF4D6
:1013D000801323FA0CF30CF10C0CBCF1200F04D396
:1013E000ACF1200C09FA0CF001E007FA0CF000292E
:1013F0004FF0004801DD18B90FE00ED140450CD385
:1014000019EB02095F4121B9404502D19F4329EA06
:101410000209BBEB175F00D0761C2088000502D5BF
:101420007B48784402E07A487844193808AA302387
:1014300002F80A30037C0AF10101002E0AF1020AC7
:1014400053546A4602DC4FF0300101E04FF03101A5
:101450004FF001088DF8001002D0A6F2FF3603E02D
:1014600059EA470100D06B4E002D02DC21780907B4
:1014700004D54FF002082E218DF80110C44600213A
:101480000BE0C7F303433F01C35C491C6D1E02F828
:101490000830052908F1010801DA002DF1DC0021EE
:1014A0000CE000EB1973491C1B786D1E082902F82B
:1014B00008304FEA091908F1010801DA002DF0DCC3
:1014C00021688B0602D516E0A8F10108E04505DD8C
:1014D00002EB080313F8013C302BF5D0B8F1000FF4
:1014E00009DD02EB080313F8013C2E2B03D1090799
:1014F00001D4A8F10108002D05DD3E2102F80810F5
:101500006D1E08F10108407C002E02F8080008F169
:10151000010804DA2D20764202F8080002E02B20B0
:1015200002F808000A214FF47A70864208F1010897
:101530000BDB96FBF0F3303302F8083096FBF0F348
:1015400008F1010800FB136601E0642E0CDB642047
:1015500096FBF0F3303302F8083096FBF0F308F115
:10156000010800FB136601E00A2E06DB96FBF1F092
:10157000303002F8080008F1010896FBF1F001FB99
:101580001060303002F80800A16908F1010808EB8A
:10159000050202EB0A00081AA0612078C00602D4F6
:1015A0002046FFF71FF9216A08AE01EB0A0020620E
:1015B00004E0D4E9012116F8010B9047BAF1010AC1
:1015C000F7D22078C00602D52046FFF70BF96E4609
:1015D00009E016F8010B3E280FD0D4E9012190470D
:1015E000206A401C2062B8F10108F2D22046FFF7C1
:1015F0000FF909B00320BDE8F08F206A284420626B
:1016000003E0D4E90121302090476D1EEBD3F8E7C9
:101610009A29030002FCFFFF10B5436913B1AFF331
:10162000008001E0FFF717F9012010BD127800F1EA
:1016300024010A7000224A700122EDE711684FF080
:10164000FF32E9E710B5436913B1AFF3008001E061
:10165000FFF7A0F9012010BD126800F124014262D9
:10166000002282620122EDE711684FF0FF32E9E7C4
:101670002DE9F04116460C46054600F047F8036890
:1016800093F80101012807D0FF2C12D8185D80B112
:1016900001202C70BDE8F081D3F8070132462146C5
:1016A00003F20713C7182846BC46BDE8F0410123E2
:1016B00060474FF0FF30EDE700487047803400206E
:1016C0007546FFF7F9FFAE4605006946534620F020
:1016D0000700854618B020B5FEF710FEBDE8204093
:1016E0004FF000064FF000074FF000084FF0000BDE
:1016F000AC46ACE8C009ACE8C009ACE8C009ACE84D
:10170000C00921F007018D467047000010B500F0B8
:1017100005F8001D10BD00BF1925030000487047E3
:10172000A03400202DE9F0411F460446032601683D
:10173000072A01F4006004DB08B116A505E016A530
:1017400003E008B115A500E015A521F01000206008
:10175000A069C01EA0610FB1401EA0612046FFF726
:1017600041F84FB1D4E9012138469047206A401C26
:101770002062C01C206206E0206AFAE7D4E9012159
:1017800015F8010B9047761EF8D22046FFF740F877
:10179000BDE8F0814E414E006E616E00494E46003C
:1017A000696E66002DE9F047814616468AB03548D5
:1017B00078440DC88DE80D0032487844801C03AC95
:1017C0000DC884E80D0041F69B300844372190FB9A
:1017D000F1F290FBF1F5A5F1800501FB12041B3C31
:1017E00002D56442012000E00020DFF898A0804686
:1017F0000027FA44AAF1BE0A0EE0E0070AD03246FA
:10180000684607EB470101230AEB810132F087F8B4
:101810008DE8070064107F1C002CEED1194F7F4427
:10182000AE3F19E0E80715D007EB04100DF1180AD8
:1018300090E80E008AE80E00C068F04201D19819C5
:1018400008903246012306A903A832F068F803ABDA
:1018500083E807006D10641C002DE3D14FF00103F5
:1018600032466946B8F1000F03A802D032F042F8C0
:1018700001E032F054F8C9E90001C9F808200AB0C3
:10188000BDE8F0879C26030080B5C2B00C2210F0A2
:10189000F3FD032210F0E9FE0DF1060010F0D5FD76
:1018A00042B080BD80B5C2B010F093FD0D218DF81F
:1018B0000C000DF106008DF80910042110F0FDFB5D
:1018C00042B080BDF0B5C1B08DF80700000A0DF13F
:1018D00002038DF809108DF80800002081420ED017
:1018E00003EB800412F82050257202EB80050130D2
:1018F0006E78AF78ED786672E572A772EEE70C202D
:101900008DF8060005208DF8050000EB8100FF2111
:101910008DF804000DF1020021F0A2FF41B0F0BDEE
:10192000B0B5C2B010F029FF28BFF9228DF80B0026
:101930000DF1060510F00EFD10F086FF042010F0EA
:101940006DFF28BF084610F03BFE42B0B0BDB0B5F9
:10195000C2B08DF80F20120A10F02EFD0DF1060511
:1019600010F04AFD10F070FF8DF8090004F1090035
:1019700010F013FF42B0B0BDB0B5C2B01346FA29A3
:101980000A460DF106050C4628BFFA2210F0CFFBDF
:1019900010F05AFF082010F046FF28BF084610F04C
:1019A0000FFE42B0B0BDB0B5C2B010F0E6FE28BF29
:1019B000F9228DF80B000DF1060510F0CBFC10F0AC
:1019C00043FF0A2010F02AFF28BF084610F0F8FD58
:1019D00042B0B0BDB0B5C2B010F0CFFE28BFF92202
:1019E0008DF80B000DF1060510F0B4FC10F02CFF83
:1019F000062010F013FF28BF084610F0E1FD42B0AA
:101A0000B0BDB0B5C2B01346FA290A460DF10605BD
:101A10000C4628BFFA2210F08AFB10F015FF0920AF
:101A200010F001FF28BF084610F0CAFD42B0B0BD5B
:101A3000B0B5C2B01346FA290A460DF106050C46A8
:101A400028BFFA2210F073FB10F0FEFE072010F002
:101A5000EAFE28BF084610F0B3FD42B0B0BD80B525
:101A6000C2B0042110F088FD082210F003FE0DF131
:101A7000060010F010FE42B080BD80B5C2B0042157
:101A800010F07AFD032210F0F5FD0DF1060010F0C4
:101A900002FE42B080BD80B5C2B0042110F06CFDE2
:101AA000052210F0E7FD0DF1060010F0F4FD42B044
:101AB00080BD80B5032010F047F8002080BDB0B590
:101AC00094B00DF094FDA0B96C46002104F13E05E0
:101AD000C8B2214612F028F850B99DF801002946F5
:101AE00000F001000DF07EFD01210028F0D000E0A3
:101AF000002014B0B0BD10B592B014461A9AADF8DB
:101B00001A10ADF818000021ADF82620199AADF88A
:101B10002420189AADF82220179AADF82020169AA2
:101B2000ADF81E20159AADF81C2006A8CDE90031AD
:101B3000CDE90211149A2346CDE9041080204021FA
:101B400000F002F812B010BD2DE9F04F8FB011F087
:101B50004C0F0BD0DFF8748F064698F8B801400799
:101B600004D598F8BA0110F04C0F03D00C200FB038
:101B7000BDE8F08F10F0300F1D4617460C4618BF19
:101B800006F0F6F9032F01D19220F0E70DF13B01A9
:101B90003846002206F06EF90028E8D170B2B0F1A4
:101BA000FF3F01DD0120E2E71D9F9DF83B30F87B00
:101BB000B97B97F804B097F807A097F8069097F8C4
:101BC00009C03E7AFA7A41EA0020B97A41EA022154
:101BD00046EA0C2249EA0A260D9038780C9078786B
:101BE0000B90B8780A90F878099078790890787B0B
:101BF0003F7BCDE9036247EA002E08984BEA0027B5
:101C000018988DE889000D98CDE9051E2B460790A0
:101C1000DDE90B1040EA0120DDE9092141EA02215A
:101C20001B9A0DF0F5FC0028A1D198F8BA012043C9
:101C300088F8BA0100209AE7FEB511F0B30F0FD073
:101C4000DA4F064604200C46802908BF082097F882
:101C5000B811084204D097F8BA0110F0B30F01D0C0
:101C60000C20FEBD10460DF10B0100221D4606F0B2
:101C700001F900B1FEBD70B2B0F1FF3FC4BF012059
:101C8000FEBD0C99DDF828C09DF80B3091F801E0FD
:101C90000A7908788E78C97841EA0222CDF800C026
:101CA0004EEA06210DF088FD0028E3D101202946E7
:101CB0000DF07DFD0028DDD197F8BA01204387F8AB
:101CC000BA010020FEBD00BF2DE9FF41B74D074618
:101CD00095F8B80108B10C2028E017F00F0807D0DC
:101CE00008461C46164606F097F818B197201DE0E6
:101CF00092201BE00020CDE9020095F8370010B1DA
:101D000002208DF8090002A80EF098FD17F0050FCB
:101D100009D0DDE90A30314622460090404606F0FF
:101D200015FE0028E2D1002085F8B88104B0BDE896
:101D3000F08100BF80B5C2B010F010FD0A218DF80F
:101D40000C000DF106008DF80910052110F0B5F911
:101D500042B080BD80B5C2B00420FF218DF80A00DA
:101D600000208DF8090002208DF808000DF1060012
:101D700021F076FD42B080BD10B50C4612F094FC07
:101D800070B1C17D90291CBF0C2010BD4021002CDA
:101D900008BF6FF07F01427F11434177002010BDE3
:101DA000022010BD80B5C2B0042210F0E5FB8DF812
:101DB0000D108DF80A2009228DF80C000DF1060097
:101DC0008DF8092008228DF808200A0E8DF81020C1
:101DD0000A0C090A8DF80E10FF218DF80F2021F052
:101DE0003FFD42B080BD80B5C2B010F033FC012190
:101DF0008DF80C000DF106008DF80910062110F089
:101E00005CF942B080BD80B5C2B010F023FC0B215C
:101E10008DF80C000DF106008DF80910062110F068
:101E20004CF942B080BD80B5C2B010F097FC0221E1
:101E30008DF80C000DF106008DF80910052110F049
:101E40003CF942B080BD000010B50C4612F02CFCED
:101E50000A498C4284BF922010BD68B1417E02299C
:101E60001CBF0C2010BD9949C1F8A440417F41F02E
:101E700010014177002010BD022010BD3F420F002D
:101E8000B0B5C2B00DF106058DF80C108DF80B0041
:101E9000194614468DF80D2005F108001AF0DCFCF7
:101EA0000420FF218DF80A0007208DF80900601D2D
:101EB00010F073FC42B0B0BD2DE9F04701289CBF83
:101EC0000D46022902D99220BDE8F087DDF8208076
:101ED000B8F1070FF7D3DDF82490B9F1100FF2D85D
:101EE000C145F0D3DDF830A0BAF1010FEBD8022ADA
:101EF00016469CBF1F46012BE5D8044612F086FF0C
:101F000010B10C20BDE8F087DDE90A106F4A82F8B5
:101F1000AB7082F8AA6082F8A15082F8A04082F8E3
:101F2000A81082F8A39082F8A28082F8A9A0C2F833
:101F3000A4000020BDE8F08704288FBF92206349E9
:101F400081F8AD00002070471CB50224009405F014
:101F5000EDFF1CBD70B55D4E044696F8BA012042F7
:101F600005D014F04C0F04D014F0B30F0BD00C2597
:101F700019E0A0071CBF4FF4007003F089FE05F0C4
:101F8000F7FF054608E00DF070FB054696F8BA012C
:101F900000F0B30086F8BA012DB9012021460022D5
:101FA000002504F037FD284670BD00BF1C5C0020F2
:101FB0002DE9F84F1C4617460E46054607F0F8FD7A
:101FC00008B1BDE8F88F002C42D0DFF8C8ACDAF8D1
:101FD000F8110AF5FC70814208D00AF500700EF085
:101FE00064FFA4F1010B80B2584502DA9820BDE8E5
:101FF000F88F0AF5F87840460EF057FF0004CDF848
:10200000008011D0DAF8F48108F120000EF04DFFC5
:10201000814608F128000EF048FFB8F8081048443F
:10202000084400F1010801E04FF001086FEA0800E0
:1020300080B20130A0423CBF6120BDE8F88FDAF8E1
:10204000F891012F07D0022F02D142F6010004E0DF
:102050009220BDE8F88F4FF42050A9F80A0009F14A
:102060000E002946324607F0BFFC0028A9D10A9F7E
:10207000484689F80C50A7F80080A9F808800EF0AF
:102080000EFF484600990EF004FF09F1200528468E
:102090000EF0FCFE09F128000EF0F8FEBBF1000F77
:1020A0000BDDDAF8006230460EF0F9FE30462946C4
:1020B0000EF0EFFEABF1010BF0E738882118013983
:1020C00089B207F069FA0020BDE8F88F1C5C002097
:1020D000B0B5C2B010F05CF90DF1060510F0F1FAE0
:1020E00010F0B2FB01208DF8090004F10A0010F095
:1020F00054FB42B0B0BD7CB501AA6B46022107F08B
:102100000FFA044660B9DDE900562946304602F070
:1021100060F9284607F004FD706820F48050706074
:1021200020467CBD2DE9FC4114460E4601AA6B46B3
:102130000FF0EDFE0746B8B9DDE90085701C2346B7
:1021400082B24146284602F077FB18B1074610F0EC
:1021500081F809E006482C83E861686840F4005083
:10216000686010F0AEF900273846BDE8FC8100BF7A
:10217000B78700082DE9F04186B014460D4605AA40
:1021800004AB0FF0C4FE064680B9DDE9048742F6D1
:1021900003000DF10E0110F019FA064610B110F00F
:1021A00059F803E003483C830FF003FE304606B0C5
:1021B000BDE8F081B187000870B586B005AA04AB10
:1021C0000FF0A5FE044600BBDDE904564FF4205095
:1021D0000DF10E0101224FF6FF73ADF80E00012044
:1021E000CDE900102946304602F00AFD044618B138
:1021F000284600F062FD08E00548F061706840F490
:1022000000507060284607F08BFC204606B070BD79
:10221000BD830008B0B5C2B0F82A144628BFF82222
:1022200010F0B9F90DF106050FF05FFF10F00CFB8F
:10223000122010F0EEFA28BF084610F0C1F942B0A3
:10224000B0BD80B5C2B08DF80D100C2110F019FA98
:1022500011218DF80C000DF106008DF809100821F0
:102260008DF8081010F083FA42B080BD7CB501AA49
:102270006B46012107F054F90546B8B9DDE900467F
:102280002146304602F0BCF820B10546204600F059
:1022900014FD0BE00648F0610320B076706840F44E
:1022A00021507060204607F03BFC002528467CBD8D
:1022B000E18700082DE9F04186B014460D4605AAD5
:1022C00004AB0FF024FE064680B9DDE9048742F630
:1022D00002000DF10E0110F079F9064610B10FF071
:1022E000B9FF03E003483C830FF063FD304606B0BE
:1022F000BDE8F081BB880008B0B5C2B0F82A14462A
:1023000028BFF82210F047F90DF106050FF0EDFE99
:1023100010F09AFA0E2010F07CFA28BF084610F050
:102320004FF942B0B0BDB0B5C2B010F031F80DF108
:10233000060510F0C6F910F087FA1E208DF8090086
:1023400004F10A0010F029FA42B0B0BDF0B58FB028
:102350002A4E96F8E401C0071AD1294F41F6010030
:1023600001250DF13A010123ADF80C0086F8E45186
:102370000091B88F800758BF042303A901200122D0
:10238000FFF716FE40B10020972486F8E40100E034
:10239000622420460FB0F0BD4FF4E06000248DF8B9
:1023A0001E50BDF83A50ADF8340097F83C008DF857
:1023B00036408DF83340ADF81C508007E9D420201A
:1023C0008DF832000420ADF8300042F60520ADF85B
:1023D00020000EA807A905F0DBFD0028D3D109488D
:1023E000BDF83810002204230024029002A80090B7
:1023F000284600F0FDF80028C5D1CAE71C5C002083
:10240000585E00200100FFFF80B5C2B00FF0E1FF71
:102410001B218DF80C000DF106008DF80910042128
:102420000FF04BFE42B080BDB0B5C2B0F82A1446E2
:1024300028BFF82210F0AFF80DF106050FF055FE99
:1024400010F002FA0F2010F0E4F928BF084610F04F
:10245000B7F842B0B0BDB0B5C2B00FF099FF0DF102
:10246000060510F02EF910F0EFF91F208DF8090085
:1024700004F10A0010F091F942B0B0BDB0B5C2B09D
:102480008DF80F20120A0FF097FF0DF106050FF0DF
:10249000B3FF10F0D9F918208DF8090004F10900F4
:1024A00010F07BF942B0B0BD80B5C2B08DF80D1010
:1024B0000FF08FFF10218DF80C000DF106008DF844
:1024C000091005210FF0F9FD42B080BD80B5C2B002
:1024D0000FF07FFF02218DF80C000DF106008DF842
:1024E000091004210FF0E9FD42B080BDB0B5C2B0C3
:1024F0000FF062FF14468DF80F20120A0DF1060549
:102500008DF8102010F0B1F805F10B0019462246A5
:102510001AF0A2F910F098F91D208DF8090004F1C5
:10252000080010F03AF942B0B0BDB0B5C2B010F03A
:1025300023F80DF106038DF80D108DF80C00002026
:1025400081420AD003EB400412F81050257202EBCE
:10255000400501306D786572F2E70C208DF80A00B5
:1025600015208DF80900052000EB4100FF218DF8B2
:1025700008000DF1060021F073F942B0B0BD80B53E
:10258000C2B00C230FF018FF8DF80F20120A8DF83F
:102590000A30142310F069F80DF10600FF218DF8C0
:1025A00010208DF8093008238DF8083021F058F9F3
:1025B00042B080BD80B5C2B00FF00BFF17218DF87F
:1025C0000C000DF106008DF8091004210FF075FDC7
:1025D00042B080BD80B5C2B00C220FF04DFF162274
:1025E00010F043F80DF106000FF02FFF42B080BD50
:1025F000F0B587B00C4606A91E461746054607F0FB
:1026000013FA28B9069905AA204607F0FDF910B17A
:10261000602007B0F0BD0C981FB105990968898941
:1026200000E03146CDE90017CDE9026040F6FF70C9
:1026300029462246032307F0D3FBEAE707F00EBE44
:10264000B0B5C2B00FF0B8FE0DF1060514468DF816
:102650000F208DF80E108DF80C0005F10A001946B8
:102660001AF0FAF810F0F0F813208DF80900E01DC8
:1026700010F093F842B0B0BD1CB514460093002290
:10268000234607F08DFD1CBD10B5C2B08DF80B00C0
:102690001820449C8DF80C10FF218DF811308DF816
:1026A0000D208DF80A0004208DF812408DF80900E5
:1026B0000A208DF80800100E8DF81000100C8DF80F
:1026C0000F00100A8DF80E000DF1060021F0C8F879
:1026D00042B010BD2DE9F04393B01E486FF01305D2
:1026E000042988BFA1F11905057068B222F04EFCDB
:1026F00001062BD10DF131090DF104084846414680
:1027000022F03EFA8DF84B50002512AE0DF147072E
:10271000ECB222F059FE0230A04216D919F804009A
:10272000052818BF02280ED138F814000124ADF88E
:102730004800042C07D8304639468DF84A4022F02C
:10274000F0FC0134F5E70135E2E70020C0B213B038
:10275000BDE8F083B88B002000F0ECB8B0B5C2B093
:102760008DF80D10110A0FF007FF0DF106058DF819
:102770000E201A461C468DF810308DF80F108DF87B
:102780000C0005F10B0046991AF066F80820FF21AD
:102790008DF80A000A208DF8090004F108000FF0F6
:1027A000FCFF42B0B0BD2DE9FF470F460DF10F0110
:1027B0009946164604460DF039FE28B10546807844
:1027C000C00603D40C2442E0022440E0DDF83CA023
:1027D000687950451BD1022021460A2200F05CFA9C
:1027E000B8B1A9788046109801F0EF01A97060B1E6
:1027F000DDE90C210E984B4602902046CDE90021E0
:10280000394632460CF0F8FE28B1012004E092244B
:102810001DE064241BE00020D8F8201013220024BF
:102820000A710222D8F8201081F805A0D8F82010EB
:10283000CC718A71D8F8201008724C72052041467C
:102840000DF0F9FE18B1404600F037FA9124204609
:1028500004B0BDE8F08780B5C2B08DF80D10082136
:102860000FF00FFF02218DF80C000DF106008DF81E
:1028700009100F218DF8081046998DF81610090AD5
:102880008DF8171045998DF81410090A8DF8151058
:1028900044998DF81210090A8DF81310190A8DF851
:1028A00011100FF064FF42B080BD80B5C2B00822A5
:1028B0000FF0E2FD00220FF0D8FE0DF106000FF040
:1028C000C4FD42B080BDB0B5C2B00FF055FE0C469D
:1028D0000DF106058DF80D1011468DF80C0005F16F
:1028E0000800224619F0B8FF0820FF218DF80A00E1
:1028F00001208DF80900601D0FF04FFF42B0B0BD00
:10290000B0B5C2B00C460DF106058DF80C108DF86F
:102910000B001146E81D224619F09EFF0020FF2102
:102920008DF80A0006208DF80900201D0FF035FFF4
:1029300042B0B0BDF8B514460E460546E8B1082DC4
:1029400008BF102E1ED0182D08BF102E1AD02E2D05
:1029500008BF062E16D0342D08BF012E12D0352DFB
:1029600008BF012E0ED0C42D20D0B02D1CD1C949D6
:10297000207881F8AC00002015E020460EF098F891
:10298000062E11D1C34F21463246781919F064FF43
:1029900000202E2D07D197F8DB11012902BF00205E
:1029A00087F8DB01F8BDF8BD1220F8BD2046BDE870
:1029B000F8400EF07FB800BFB0B50C46054600F0F9
:1029C00065F8A0423CBF0020B0BDB24800EB450115
:1029D000B1F882202244A1F88220D0F88C20B0F8EF
:1029E0008810091BA0F8881089B202EB81004068AA
:1029F0001EBF52F8211000220A62B0BD2DE9F04F2F
:102A000089B08046026A1046126A002AFBD10A6A1F
:102A10000262B8F804308A88D418A8F80440002468
:102A200013F01F050C628C802AD002F01F010DF1FB
:102A30000409DFF854A0C5F120070091A9EB0501B6
:102A400001F1200B016A0446484620220E46D04779
:102A5000601949463A46D047304659462A46D0473B
:102A6000316A30460029EED1009848B12844202828
:102A700006D898F80610304600F05AF80020206278
:102A800009B0BDE8F08F00BF59C8010810B58149F1
:102A9000B1F88820BAB1B0FA80F35B0901EB4303C7
:102AA000B3F88240B3F87C301B1B23EAE373D21ADD
:102AB000022809D0B1F88600B1F88010081A20EA7F
:102AC000E070121A00E0002290B210BD1C5C0020E1
:102AD000F8B51D4614460646200404BF0020F8BD84
:102AE000366AAEB188B2202801D32039F4E7C1F1AB
:102AF0002001A7B2304489B2B94238BF0F462946F7
:102B00003A4619F051FE20B9E41B3D440021E3E7A9
:102B1000A0B2F8BDB0B50C4605462D6A3DB1246A99
:102B20002CB128462146202219F096FEF5E7B0BDCB
:102B300070B5584AB2F8883023B1D2F88C4054F8B6
:102B4000234020621C4648B10134D2F88C50A6B212
:102B5000A2F8884045F82600006AF4E701F0030176
:102B6000181B02EB4101B1F882201044A1F8820049
:102B700070BD00BF00210A460131006A0028FAD169
:102B800090B27047F8B51C461546064614E088B268
:102B9000202801D320390FE03218C1F12000AFB254
:102BA00080B21146B84238BF074620463A4619F06F
:102BB00053FEED1B3C44002128041CBF366A002E46
:102BC000E5D1F8BD10B5324A012432480021D38E38
:102BD000A0F88010518E92F830202333A0F888108E
:102BE00004EB5314A0F87E40022404EB53135A4321
:102BF0000132A0F87C2081B1D0F890300122D0F8C9
:102C00008C40914244F8223005D003F12404013273
:102C10001C622346F3E70020186210BD02680A60B8
:102C200002B941600160704700220A600268002A10
:102C3000024618BF426811604160704703688B42CA
:102C40000AD01A461B688B42FBD10B68136043689D
:102C50008B4208BF426002E00968016001B1704721
:102C6000002141607047000070B5094D24220446E0
:102C7000698E0EF06CFD074E0422C6F89000688E37
:102C8000013081B220460EF062FDC6F88C0070BDA6
:102C9000585E00201C5C002070B50E46054602F10F
:102CA0001F000121144601EB50112846FFF784FE56
:102CB00010B106818571848070BD8179FFF738BFBE
:102CC000F8B50D1D0446006A0021AAB2064668B197
:102CD00020310746006A8BB23E469342F7D378B163
:102CE000A179FFF725FF0020386209E088B2101AA9
:102CF0001F30C0F34F11A079FFF75EFE18B13062AC
:102D00000020A580F8BD9120F8BDF8B51C461546F9
:102D1000064613E088B2202801D320390EE0C1F125
:102D20002001AFB2304489B2B94238BF0F462146C4
:102D30003A4619F091FDED1B3C44002128041CBFCC
:102D4000366A002EE6D1F8BD10B52330012101EB23
:102D500050140120FFF79AFEB0FBF4F010BD000004
:102D600070B500F06DF8044610B1204670BD00BF8C
:102D700043F27050C2F2000082680021016041609D
:102D8000511C816040F23010C2F200000126016047
:102D900041F2080506710120C4F2026515F02AFD12
:102DA000EFF3108072B62968C9073ED04FF6E8717C
:102DB000C6F6FF712A6801F180531A4002322A6078
:102DC00045F8086C2A68D2071FBF2A685FEAC272FA
:102DD0002A685FEAC27206D02A68D207F2D102E0FE
:102DE0002A68D20609D52A68D20641BF2A685FEA56
:102DF000C2622A685FEAC262F2D42A68114029607E
:102E00002968C90041BF29685FEAC10129685FEAF2
:102E1000C10102D52968C900F2D44FF68C41CFF622
:102E2000FF716A5822F020026A5080F31088012056
:102E300015F0DEFC00F002F8204670BD002070475F
:102E40000020704710B5002804BF062010BD0446BE
:102E50000079012804BF032010BDFFF7F1FF00280F
:102E600018BF10BD43F27050C2F2000081680131FA
:102E70008160012021602071FFF7E0FF002010BD7C
:102E8000F0B583B0EFF3108572B6012910D0002998
:102E900043F27051C2F2000118D1006801224B6860
:102EA00002FA00F023EA00004860002498B993E099
:102EB00043F270520068C2F200020121536801FA25
:102EC00000F018430024506005E000BF4868082463
:102ED000002800F08180002041F2080601900020C7
:102EE000C4F2026615F086FCEFF3108072B631680A
:102EF000C90766D14FF6E041CFF6FF71725822F450
:102F0000E04272504FF68C41CFF6FF71725842F09A
:102F100020027250715801F02001029102994FF67F
:102F2000E871C7F6FF71326801F170431A4002F18F
:102F3000805232603268D2005FBF32685FEAC202FC
:102F400032685FEAC20202D43268D200F2D57268F7
:102F500002F003020192726822F00302726032688A
:102F60000A4002F1004232603268002A0BD5326812
:102F7000B2F1FF3F07DC3268B2F1FF3F03DC326899
:102F8000B2F1FF3FF0DD019A736823F003031A43A7
:102F90007260004600463268114041F00101316024
:102FA00056F8081CC90701BF56F8081C5FEAC17132
:102FB00056F8081C5FEAC17103D156F8081CC9070E
:102FC000EED080F31088002015F012FC85F31088F5
:102FD000204603B0F0BD00BF41F208060120C4F254
:102FE0000266012715F006FCEFF3108072B6316817
:102FF000C9073ED032684FF6E871C7F6FF710A4044
:103000000232326046F8087C3268D2071FBF32684D
:103010005FEAC27232685FEAC27206D03268D207D3
:10302000F2D102E03268D20609D53268D20641BF39
:1030300032685FEAC26232685FEAC262F2D4326822
:1030400001F17041114031603168C90041BF316800
:103050005FEAC10131685FEAC10102D53168C90088
:10306000F2D44FF68C41CFF6FF71725822F0200255
:10307000725080F31088012015F0BAFB85F3108898
:10308000204603B0F0BD00002DE9F04F83B00546A7
:103090000020ADF8060002200C4615F0ABFB002D19
:1030A0004FF0060618BF002C04D1304603B0BDE82F
:1030B000F08F00BF287978B343F27050C2F200005D
:1030C000296882684B1E93422CD24068C840C007D2
:1030D0002ED0FFF7B5FE06460028E6D140F23016A6
:1030E000C2F200064FF6E87841F208073046C7F60C
:1030F000FF78C4F2026702F0F5FA396801EA0801C4
:1031000001F101013960C8B10726FFF797FE30468B
:1031100003B0BDE8F08F00BF0426304603B0BDE821
:10312000F08F00BF0526304603B0BDE8F08F00BF2A
:103130000826304603B0BDE8F08F00BF0020ADF890
:1031400008003868C00707D0386880075CBF386857
:103150005FEA407040F1A68003F04CFD57F8080C80
:1031600040075FBF57F8080C5FEA407057F8080C3B
:103170005FEA407003D457F8080C4007EED50420EE
:1031800047F8080CE8684FEAB000032824D8DFE8C5
:1031900000F0030B131B00BF4FF48050ADF8080084
:1031A000B86B6FF31F3015E04FF48060ADF8080086
:1031B000B86B6FF39F200DE04FF48070ADF80800FE
:1031C000B86BC0B206E000BF4020ADF80800B86B95
:1031D00000F03F00ADF80800BDF8080040F21071A3
:1031E000C0F6F931ADF80600B1F895B0BDF806A00B
:1031F000D6F80C90284602F075FA3968064601EABE
:10320000080040F00100012E386043D0002E7FF40A
:103210007CAF40F6B83000220BFB00F04FEA5901BA
:10322000ADF80A200AFA01F13A68B0FBF1F6D007CE
:1032300007D0386880075CBF38685FEA407040F1AB
:10324000978003F0D7FCB0B257F8081C49075FBF5E
:1032500057F8081C5FEA417157F8081C5FEA417192
:1032600003D457F8081C4907EED5042147F8081C79
:10327000E9684FEAB102032A35D8DFE802F0032BF0
:103280001B2300BF4FF48052ADF80A20BA6B6FF3D6
:103290001F3226E00726FFF7D1FD304603B0BDE818
:1032A000F08F00BF386800EA080040F00400386082
:1032B00054E700BF4FF48072ADF80A20BA6BD2B267
:1032C0000FE000BF4022ADF80A20BA6B02F03F02C7
:1032D00007E000BF4FF48062ADF80A20BA6B6FF3CD
:1032E0009F22ADF80A20BDF80A2040F21073ADF815
:1032F0000620C0F6F9331A885B8EBDF8067093423B
:103300001AD100FB07F0490840F6FF7222FA01F1DA
:10331000B0FBF1F046F24071CFF6F4714FF47A72DF
:1033200000FB021048F6AD31C6F6DB0180FB01015F
:10333000880A00EBD17012E0490807FA01F101FB9D
:1033400000F041F6F111C0F27651A0FB0101C2EB91
:103350009110642100FB01F0991A90FBF1F01E30EE
:1033600000262080FFF76AFD304603B0BDE8F08FED
:10337000386800EA080040F00400386063E70000A5
:103380002DE9F04F81B01446002243F29868226084
:10339000C2F2000898F80020012A1EBF0D2001B0DB
:1033A000BDE8F08F0E46A9B3EFF3108B72B69A46C4
:1033B000A0B3D8F81410002900F07B80D8E9052CC0
:1033C00026F07F4141EA006EBAF1000F06F10109D3
:1033D0000CF1180150D0002511F8183C834200F080
:1033E000C3806B1C934264D211F80C7C874267D077
:1033F000AB1C93425DD20F78874261D0EB1C9342A5
:1034000057D20F7B87425BD00435954201F13001E2
:10341000E2D34EE00A2001B0BDE8F08F08F10802C7
:1034200007CA401A801AB04218D9D8F8301006F1ED
:10343000010948468847002846D026F07F4140F8D9
:10344000041BD8F80C10206009EB0100C8F80C0030
:103450008BF31088002001B0BDE8F08FBAF1000FA7
:1034600004D008F11C0051460DF0BAFF8BF3108810
:103470000A2001B0BDE8F08F002711F8183C834204
:1034800033D07B1C934214D211F80C5C85422BD0B4
:10349000BB1C93420DD20D78854225D0FB1C934274
:1034A00007D20D7B85421FD00437974201F13001CE
:1034B000E3D309208BF3108801B0BDE8F08F00BF83
:1034C0005F461D4651E000BFBAF1000F00F0928048
:1034D00008F11C0051460DF083FF8BF310880B2080
:1034E00001B0BDE8F08F00BF1F4607EB470A08F1A7
:1034F00008020CEB8A00D0F80110D0F805000F1A72
:1035000038BF002707CA11443844401AB04225D9B1
:10351000D8F83010484675468847002800F07C806F
:1035200040F8045B2060D8F8180000EB8A00D0F85F
:103530000510D0F8012049448A42C0F8051006D28F
:10354000D8F80C00A9EB07010844C8F80C000020CB
:103550008BF3108801B0BDE8F08F00BF0A208BF319
:10356000108801B0BDE8F08F5F4605EB450508F116
:1035700008020CEB8500D0F80110D0F80500B1EB83
:10358000000B38BF4FF0000B07CA11445844401AD3
:10359000B04223D9D8F8301048467646884778B3E9
:1035A00040F8046B2060D8F8180000EB8500D0F8D4
:1035B0000510D0F8012049448A42C0F8051006D20F
:1035C000D8F80C00A9EB0B010844C8F80C00002047
:1035D000BB468BF3108801B0BDE8F08F08F11C00EA
:1035E00051460DF0FDFE0A20BB468BF3108801B05A
:1035F000BDE8F08F8BF310880B2001B0BDE8F08F91
:1036000008F11C0051460DF0EBFE0B20BB468BF37E
:10361000108801B0BDE8F08F0B208BF3108801B04B
:10362000BDE8F08F70B582B043F29860C2F200003E
:1036300000F124040026204601960DF0DDFE78B945
:1036400001AD00BF204629460DF0E2FE019838B1D9
:1036500080688047204601960DF0CEFE0028F1D00C
:1036600002B070BD2DE9F04381B043F29867C2F219
:1036700000073978012907D160B1810710D00724EC
:10368000204601B0BDE8F0830D24204601B0BDE81E
:10369000F08300BF0224204601B0BDE8F08300BFE4
:1036A000796808248142EBD8BA6801EB8201814233
:1036B000E6D3EFF3108872B650F8044D796B24F01E
:1036C0007F4606F1010988470020B0EB146F33D024
:1036D0007A69BAB3D7F818C0230E0CF11800022586
:1036E00010F8181C8B4231D08B424FF0090443D0A4
:1036F000691E914240D210F80C4CA34224D04FF0E6
:10370000090439D0954237D201788B421FD08B42C1
:103710004FF0090430D0691C91422DD2047BA342A2
:1037200012D0A3424FF0090426D0A91C04359142BF
:1037300000F13000D4D31FE0F8680024A0EB0900AA
:10374000F86019E0092417E00D4600E0023D05EBA2
:1037500045000CEB800050F8051F50F8042C8A1A25
:10376000012A05DBFB68964238BF4A469A1AFA607E
:10377000A1EB090101600024002007F11C05009065
:1037800028460DF039FE70B96E462437284631467A
:103790000DF03EFE009938460DF022FE28460DF051
:1037A0002BFE0028F2D088F3108800F01FF9204685
:1037B00001B0BDE8F08300002DE9F04F81B043F285
:1037C0009868C2F2000898F8001000291EBF0C206B
:1037D00001B0BDE8F08F044640B1206808B1800711
:1037E00008D0032001B0BDE8F08F00BF022001B077
:1037F000BDE8F08F60680028F3D0A16801B3E268EB
:10380000D2B1E36801EB4102083B012713F8085FDE
:10381000B5FA85F56D095E683244B6FA86F6760922
:103820002E430025904238BF0125354303D18F42F6
:1038300007F10107EAD31DB1042001B0BDE8F08F04
:103840000020454645F82C0FC5E9010045E90A006E
:1038500045E9080045E9060045E9040045E902009C
:10386000284600F0C7F82A680520002A00F0BA8030
:103870006968002900F0B680A968002900F0B280CC
:10388000D4E90001C8E901019047A068D8F83010D8
:1038900000EB40008847C8F8180018B308F11C0076
:1038A0000DF08EFD08F124000DF08AFDA068D8F817
:1038B0000C1000EB400200281144C8F81400C8F8AE
:1038C0000C1000F08B80D4F80C90D8F81020D8F8A9
:1038D00018E0431E00F0030C032B4FF0000B09D23D
:1038E00000253CE0A06800281EBF062001B0BDE80E
:1038F000F08FD3E720F0030AA9F110000EF1290799
:10390000002500BF10F8206F09EBC50104354C6895
:1039100010F8103C224407F8293C0B7A47F8284C51
:1039200007F81D3CCB6847F824BC47F81C3C1A44F8
:103930004B6947F818BC47F8103C1A440B7EC9691C
:1039400007F8116C47F80CBC07F8053C47F8041C55
:10395000C7F800B00A44AA4507F13007D2D1BCF13C
:10396000000F39D009EBC50005EB4503476819F88E
:1039700035400EEB83060020BCF1010F3A440EF8EF
:103980002340C6F80170C6F8050025D0691C09EB74
:10399000C10301EB41045B6819F831100EEB84069A
:1039A000BCF1020F1A440EF82410C6F80130C6F814
:1039B000050011D0A81C09EBC00100EB400319F869
:1039C00030000EEB830749680EF823000020C7F88B
:1039D0000110C7F805000A44C8F81020012088F833
:1039E0000000002001B0BDE8F08F00004020002161
:1039F00017F01ABE43F62121C0F6000143F6152246
:103A0000016043F61D21C0F60002C0F60001C0E9C6
:103A100001217047800017F0A3BB000017F080BCA5
:103A2000890017F057BC00000B49098D49B1427855
:103A30000A49FF2A02D091F86C2012B10279182AA3
:103A400005D1817800220023033102F06FB80022F3
:103A500081F86C2002F060BD585E00201C5C0020E4
:103A600045F69541C0F60001002014F059BA000057
:103A7000F0B58DB043F6E837C2F2000707F1080051
:103A80000DF09EFC46F285022020C0F600020021C7
:103A9000002617F0BBFC46F299020820C0F600028F
:103AA000002117F0B3FC40F2B865C2F20005002017
:103AB00029464FF4FC72C5E9006614F05BF800205B
:103AC00014F03AF902F030F80FF048FB02F02AF94E
:103AD00048F6C4400821C2F20000C0F24051C16261
:103AE000FB21C0F2F801C0F836104FF4015143F247
:103AF0007423C0F83A1041F60261C2F20003C0F22A
:103B00006D01436240F2001340F69864016341F294
:103B10007C21C0F24403C2F200048362C0E9004188
:103B2000FB2142F21413C0F2FC01C2F20003C0E90F
:103B3000031343F274414FF48B52C2F2000180F838
:103B4000346006628560C0E90521C161066402F047
:103B50007DFA002840F0548240F204750FF2B8421A
:103B600000200221ADF81E60ADF81C60ADF81A60AF
:103B7000C0F6F935ADF818600DF078FC09A93846A3
:103B800006220896ADF8286009963E60BE80FCF7D4
:103B900091FC20BBD5F8FC02411C0DD0D5F80013D8
:103BA0003870000A7870080C0A0A3871080EB9706B
:103BB000FA70787113E000BF08A900200EF07CF8BD
:103BC00030B18020B8804FF06140386007E000BF1E
:103BD00008980189D0F80A003980C7F8020043F636
:103BE000E834C2F2000400200621224618F030F921
:103BF00040B144F6E33203460020C0F6030202213E
:103C000017E000BF44F2DE720020C0F6030202217A
:103C10000DF02CFC20796178A278E678637927781A
:103C2000CDE90006CDE902210FF218420020022161
:103C300004970DF01BFC0021204640F81C1FCDE925
:103C40000911C0E90111C160CDE90B1109A91022C8
:103C5000FCF730FCB0BB55F8041C481C1CBF28689E
:103C600010F101020CD143F212404BF69A41C7F613
:103C70005600CFF2DE01C4E90701C4E9090121E0E1
:103C80000A0A84F82410217784F8252062770A0C28
:103C9000090E84F82710E177010A84F8280084F8D7
:103CA000200084F8291084F82110010C000E84F8FB
:103CB0002620A27784F82A1084F8221084F82B009A
:103CC00084F8230004F11C021820102118F0C0F819
:103CD00050B144F6944203460020C0F6030202218C
:103CE0000DF0C4FB08E000BF44F66F020020C0F6F0
:103CF000030202210DF0BAFB0021204640F82C1FE0
:103D0000CDE90911C0E90111C160CDE90B1109A983
:103D10001022FCF7CFFB00283ED12868411C1CBFB5
:103D2000696811F101020DD14DF6FE4046F287514E
:103D3000C0F6BA10C2F24311C4E90B01C4E90D0187
:103D40002AE000BF0A0A84F8341084F82C1084F8A2
:103D5000352084F82D200A0C090E84F8371084F8D9
:103D60002F10C14384F8381084F830106FEA102106
:103D700084F8391084F831106FEA10416FEA10604E
:103D800084F8362084F82E2084F83A1084F8321013
:103D900084F83B0084F8330004F12C020820102141
:103DA00018F056F850B144F63E4203460020C0F6E3
:103DB000030202210DF05AFB08E000BF44F629027D
:103DC0000020C0F6030202210DF050FB0120192152
:103DD00018F030F8B0B144F6EA4203460020C0F6CD
:103DE000030202210DF042FB17F0E8FFB0B144F6E8
:103DF0009A5203460020C0F6030202210DF036FB62
:103E000014E000BF45F2C1020020C0F60302022107
:103E10000DF02CFB17F0D2FF0028E8D145F2BF12BD
:103E20000020C0F6030202210DF020FB07A80DF1CF
:103E30001A0700900DF11E030420002113220197A0
:103E400017F0F2FE50B144F6695203460020C0F666
:103E5000030202210DF00AFB12E000BFBDF81E00B4
:103E6000BDF81A10A087BDF81C0045F29E12E0872D
:103E7000A4F840100020C0F6030202210DF0F6FA6B
:103E8000BDF81E00BDF81C1040F280170022C2F2DF
:103E900000071323009717F09FFF48B144F61472F0
:103EA00003460020C0F6030202210DF0DFFA07E00E
:103EB00045F2D9220020C0F6030202210DF0D6FA05
:103EC000BDF81E00BDF81A1006AF002202230097AD
:103ED00017F082FF50B144F6D06203460020C0F6CE
:103EE000030202210DF0C2FA08E000BF45F2A5224C
:103EF0000020C0F6030202210DF0B8FA00200221D2
:103F000002221FF0BDFF48B144F65762034600206D
:103F1000C0F6030202210DF0A9FA07E045F24C2297
:103F20000020C0F6030202210DF0A0FA012084F85F
:103F30004400012017F0C4FE50B144F692620346DB
:103F40000020C0F6030202210DF090FA08E000BF45
:103F500045F277220020C0F6030202210DF086FA16
:103F600040F20110C1F20800C4F84500002701200A
:103F700010210822CDE90021CDE90207012001210D
:103F800001220023049717F07FFE68B144F6CC525B
:103F900003460020C0F6030202210DF067FA94F8F0
:103FA000460060B920E000BF45F2E1120020C0F6F3
:103FB000030202210DF05AFA94F84600A0B117F05E
:103FC00003FE48B144F6176203460020C0F6030220
:103FD00002210DF04BFA07E045F21C220020C0F64A
:103FE000030202210DF042FA45F20E320020C0F623
:103FF000030202210DF03AFA14F0ACFB04F042FA8D
:1040000046F20D424FF40050C0F60002002117F0B6
:10401000FDF90DB0F0BD00BF3D3D3E3E2053746143
:10402000727420426C655F4863695F4761705F47E7
:104030006174745F496E69742066756E6374696F2C
:104040006E0A000020205075626C696320426C7516
:1040500065746F6F746820416464726573733A208D
:10406000253032783A253032783A253032783A2580
:104070003032783A253032783A253032780A0000EA
:1040800010B543F6E834C2F2000494F84A0003285D
:1040900006D14FF480400021BDE8104017F0C4BAAB
:1040A0004FF448704FF448710022002317F016FEB9
:1040B00050B144F68C7203460020C0F60302022180
:1040C000BDE810400DF0D2B9042345F26232002061
:1040D000C0F60302022184F84A30BDE810400DF01A
:1040E000C5B9000080B543F6E830C2F2000090F890
:1040F0004A00032808BF80BD17F058FD40B10346B1
:1041000007A200200221BDE880400DF0AFB900BF3A
:1041100011A200200221BDE880400DF0A7B900BF28
:104120003D3D3E3E206163695F6761705F636C6522
:1041300061725F73656375726974795F6462202D63
:10414000204661696C2C20726573756C743A20305E
:104150007825303258200A003D3D3E3E206163699B
:104160005F6761705F636C6561725F7365637572D1
:104170006974795F6462202D20537563636573737E
:104180000A0000007047000070B582B000200021D6
:1041900001F0BCFE0120002101F0B8FE0220002148
:1041A00001F0B4FE40F20220C0F2040007F0AAFEC3
:1041B00040F20440C0F2200007F0A4FE41F21000DB
:1041C000C0F2002007F09EFE43200521002207F0E8
:1041D00037FD432007F008FD44F281024FF4806070
:1041E000C0F60002002117F011F944F2E5024FF485
:1041F0000060C0F60002002117F008F944F28512B1
:104200004FF48050C0F60002002117F0FFF840F292
:10421000A41546F2FD06C2F20005C0F60006281DF0
:10422000002101223346009517F03AFA05F12804DF
:1042300005F12C00002101223346009417F030FADA
:1042400005F1500405F15400002101223346009489
:1042500017F026FA02B070BD80B5002001F0EEFD27
:10426000012001F0EBFD0220BDE8804001F0E6BD39
:10427000B0B53FA10446FCF767FA00284AD03DA13B
:104280002046FCF761FA002852D03BA12046FCF7FB
:104290005BFA002842D039A12046FCF755FAE8B372
:1042A00038A12046FCF750FA00284FD036A120460E
:1042B000FCF74AFA002857D034A12046FCF744FA0C
:1042C000002847D032A12046FCF73EFA002841D012
:1042D00031A12046FCF738FAC0B130A12046FCF7E6
:1042E00033FA98B12EA12046FCF72EFA38B12DA151
:1042F0002046FCF729FA00281CBF0020B0BD40F280
:10430000A410C2F20000012180F870104FF4805513
:1043100010E000BF4FF480650CE000BF40F2A41035
:10432000C2F20000012180F820104FF4806501E006
:104330004FF480651DA20020022123460DF096F85F
:104340002846002117F070F90120B0BD4FF4006538
:10435000F0E700BF40F2A410C2F20000012180F893
:1043600048104FF40065E5E74FF40065E2E700BF51
:10437000423100005357310042314C005357314C09
:1043800000000000423200005357320042324C001D
:104390005357324C000000004233000053573300A3
:1043A00042334C005357334C0000000025732070FB
:1043B0007265737365642062792053657269616CFC
:1043C00020436F6D6D616E642E0000007047000029
:1043D0007047086A1E2202710520888000207047FD
:1043E000B0B51C6A012525711C6A6171110A1C6A2D
:1043F000E171A271196A087209209880B0BD0000AD
:104400004079800744BF0C207047086A022202717D
:10441000764A086AB2F8E6214271120A82710720D0
:1044200088800020704700BF10B514468A88072A8C
:1044300010D143689A051ED4096A4A79897942EAFB
:104440000121172904D3FB4AB2F8E621172A07D223
:10445000172208E00420022100220EF0D7F916E00E
:10446000914238BF0A4643F400714280416001889E
:10447000012002F0C1F9206A03210171ED49206A8F
:10448000B1F8E6114171090A81710720A08000206E
:1044900010BD00BF2DE9FE4F009088889046062889
:1044A00028D1E44F0E46096A00200DF1040B91F863
:1044B00005A001900290D7F81C9207F50774B9F196
:1044C000000F20D04D46D9F80090308929898142CB
:1044D000F5D120462946FEF7B1FB2846FEF74AFBF8
:1044E000B7F82412081A2946A7F824025846FEF7FE
:1044F0009BFBE4E70420182100224346FFF770FFEE
:104500000020BDE8FE8FD8F8200019210171052098
:10451000BAF1010FA8F804002CD1019DEDB1286A71
:104520002C680EF021F886B2304604F0B5F9B8B127
:104530002A6AA988D379127A093943EA0222837B4D
:104540000BB1808900E0408990420BD989B22546A1
:1045500011448142E2D90D2005E04FF0010A09E043
:10456000012000E00720182132464346FFF738FFBC
:104570004FF0000A019D002DC2D02C68BAF1010F46
:104580002FD1286A0DF0F0FF1FFA80FB584604F087
:1045900083F90099064603F014FF8146286AC17921
:1045A000007A41EA0027A8880921A0F109082846D5
:1045B0001FFA88F209EB0703FEF7E4FAB07B10B1AB
:1045C00008EB070070811CB1206A0DF0CDFF00E000
:1045D000002080B2834504D0009831464A4603F05B
:1045E00008FF2846FEF769FB2546C4E71C5C00204F
:1045F0002DE9F04152B11E4617469A4206D80446AC
:104600004088DDF820800738404501DA0EF04AB9CD
:104610000D4608F1070081B22846FEF751FB08B1AC
:104620000EF0F1B8296A0622DDE906030A71390A9B
:104630002A6A91715771310A2A6A1172D671010A78
:104640002A6A9172507228460B214246FEF75DFBA2
:1046500007200DF01DBC00002DE9F04F89B08C88BB
:1046600017460A2C07D80420062100223B460024C6
:10467000FFF7B6FE23E00646086A8946417982794B
:10468000C379057A41EA022143EA05231FFA81FB37
:104690005B450DD309040BD090F80A8090F809A06F
:1046A000718838460493FEF70BFB60B1952406E051
:1046B000012006215A463B46FFF792FE0024204681
:1046C00009B0BDE8F08F386A072105960171012015
:1046D000ADF82200584604F0F3F8002800F0A78057
:1046E0004AEA08210546A4F10B00009780B2039125
:1046F00021F0010107900191B74901F5F87102918C
:10470000DDE904610298854200F089802C4634F886
:10471000083FB34200F28380BDF822004A88121A93
:10472000042A7EDB01980695B0F5205F23D19B45D6
:1047300073D805F10E030EF0F1F8DDE90515039BC2
:104740006A89934269D1079A022A14BF102A002865
:1047500063D128462346224650F8281F88421CBFB2
:10476000E86A00F108030DF12201009800F0A3FFB0
:10477000DDE9051551E0A84658F8284FA0454CD072
:1047800044454AD0A2463AF8080F584521D3B042D2
:1047900045D8E07B01281CD120460E4603F011FECF
:1047A00003460EF0BBF80546304621460DF04FFF9C
:1047B000218A039A8A4208BF002805D16089079A96
:1047C000904208BF002D07D02746049EDDE905155D
:1047D00000E027463C68D3E705984288BDF82200F0
:1047E000121A042A1DDB42F60300814242F603013D
:1047F00008D1049E2746246844451CBF208A88426D
:10480000F8D101E02746049E07F1080300980DF156
:104810002201524600F04FFFD8E72D6872E7BDF83D
:104820002200009F022802D30430B88046E70A2005
:104830003FE700BF1C5C00200AB19A4201D99220D8
:104840007047B0B50C6A04250DF0CCFB05210DF0C6
:1048500084BE00002DE9FE4F0646888814460928CC
:1048600015D1086A41798279C379007A43EA002335
:1048700041EA022085B2AB420ED300040CD071880D
:1048800020460293FEF71CFA78B195250AE0042031
:1048900004210DF04BFD05E0012004212A460DF016
:1048A000B5FF00252846BDE8FE8F2846009604F097
:1048B00007F8002800F0848007468F4800264FF054
:1048C000000A029900F5F87001900198874272D0B1
:1048D0003B4633F8080FA84228BF814201D2B346B5
:1048E00022E0B0B2002804BF4FF0010A022600996E
:1048F000B0B24988081A042865DB5FFA8AF00128FB
:1049000061D106F1040B204602221FFA8BF1FEF75B
:10491000FCF9B01D07F10A030DF0C7FF38890299B1
:104920004FF0010A814247D007F12809C846D8F85C
:104930000080C8453CD0B8F80800A842F7D38842A8
:104940003AD81FFA8BF298F80F106AB15FFA8AF022
:10495000814237D100994988891A042908DB012846
:1049600006D14FF0010A09E04FF0020B8A4605E03C
:10497000122927DB022825D14FF0020A0BF104008F
:1049800008F108030DF091FF0BF106001026BAF1B3
:10499000010F08F1100308BF022681B220463246FB
:1049A000FEF7B3F90BEB0600029900F1020BBEE72C
:1049B0003F685E4689E7B3465FEA0B405E4602D138
:1049C0000A206AE75E46206A05210171206A80F8A4
:1049D00005A0301DA08064E71C5C002070B5049C1D
:1049E0009CB116460546206A0A0A41718271F01E82
:1049F000072182B22046FEF788F9301DA0801D20D5
:104A0000012D08BF1B20216A087170BD2DE9F043FC
:104A100085B00746084615460C46FEF7ABF88146BA
:104A2000A088092802D20026042016E0206A02236A
:104A30004179807904AA41EA00263846B1B200F0F3
:104A4000A1FD50B9DFF8C8862C49B8F8240291F8C6
:104A500031104844884209D90920B2B216212B46A8
:104A6000FFF7BEFC002005B0BDE8F083049E96F879
:104A7000260080071FD5786881031CD4216A40F482
:104A80000030257991F8078091F8089078603846D1
:104A900003F0A4FE0146A5F1090005233289029422
:104AA000C0B2CDE9003048EA092083B2012001F00C
:104AB000F6FF6920D7E7A088043881B22846FEF7C0
:104AC000FFF808B19520CEE728462146FEF722F8E8
:104AD000286A1721017108F505702146FEF7AEF826
:104AE00008F507702146FEF79FF8B8F824024844FD
:104AF000A8F824026720B6E71C5C0020585E00205E
:104B00003AB1B0B50C6A0C250DF06CFA0D210DF020
:104B100024BD922070472DE9F84306468888144644
:104B2000092812D1086A4179827990F80780077ABA
:104B300041EA022085B2284603F0C2FE78B1014660
:104B40000089A84206D10B200AE004200C210DF0B8
:104B5000EDFB0AE06A46284604F056FF40B101200A
:104B60000C212A460DF052FE00252846BDE8F883A8
:104B7000009930460DF06BFD0028F1D10099728844
:104B80004889D31E8342DEDA48EA07271FFA87F8EE
:104B9000804501D90720E3E791F82600400708D5B2
:104BA000B079000705D43046424604F0D1FE6925AD
:104BB000DBE720461146FEF783F808B19525D4E7D8
:104BC000206A0D21017100984189B6F80290C91B35
:104BD0008FB2314603F0F5FBA9F1010100EB0803A8
:104BE00020468EB2B74238BF3E4632460521FEF718
:104BF0008CF84FF6FF708642B1D0701DA080B3E7ED
:104C000070B572B19A420CD80D46096A1026044656
:104C100005980DF080FB06D0022802D1192610223B
:104C200003E0922070BD0B260222049B2846092136
:104C3000FEF76BF81120AE80A076606840F4046047
:104C40006060002070BD00002DE9F04F87B0804605
:104C5000888892460B2818BF19283FD1086A4279E4
:104C60008379C479007A44EA002942EA032085B2B4
:104C7000A9452BD3000429D00DF10A07084639466F
:104C800000F09EFC07F10C010DF11A00022217F052
:104C9000E3FDBDF81A0020F00100B0F5205F28D137
:104CA0004F4800F5F87637463F68B74200F09580E8
:104CB0003889A842F8D3002F00F08F80B8F802108E
:104CC0005046FDF7FDFFB0B195250EE00120102103
:104CD0002A465346FFF784FB002506E004201021F6
:104CE000002253460025FFF77BFB284607B0BDE8AE
:104CF000F08F1020EBE700204FF0000B0190B7423F
:104D000063D03C4634F8080F48455ED8BDF81A1009
:104D10007889884257D15FEA0B400ED1DAF820003B
:104D200011214FF0020B01711421387B012808BFBB
:104D30000621DAF82000019141711FFA8BF0B8F8D2
:104D40000210081A042843DB019880B2142805D009
:104D500006283DD1387B012803D039E0387B022872
:104D600036D10BF104000222234600900DF0F2FC34
:104D7000384650F8281F88421CBFF86A00F1080422
:104D800023460BF1060002220DF0E4FC5946B8F868
:104D90000200DDF800B007F10E03A0EB0B0084B2B7
:104DA0000198043880B2A04238BF044601F10800DF
:104DB00022460DF0CFFCA344B8F802101FFA8BF086
:104DC000081A042801DB3F6899E75FEA0B4004D02A
:104DD0000BF10400AAF804007EE70A2077E700BF81
:104DE0001C5C0020F8B572B19A420CD80D46096AD5
:104DF0000826044607980DF08EFA06D0022802D144
:104E00001926102203E09220F8BD0B260222069BF1
:104E1000284609210927FDF778FF6068AE80A7764C
:104E200040F4046060600020F8BD00002DE9F04F00
:104E3000D1B0054688881C4616460F460B2818BF79
:104E4000192828D1386A41798279C379007A43EAEE
:104E5000002841EA02201FFA80F9C84513D3000454
:104E600011D00DF59A7AA9491022504617F0F4FC9A
:104E700049A9384600F0A4FB69883046FDF720FFB9
:104E8000A0B195250EE0012008214A463346FFF7E0
:104E9000A7FA002506E00420082100223346002559
:104EA000FFF79EFA284651B0BDE8F08F484603F060
:104EB00007FD002800F0148107460AF10C00019458
:104EC00002244FF0000B0496CDE90658059000200F
:104ED00003908F4800F5F87002900020009002982F
:104EE000874200F0E880089737F8080F404500F245
:104EF000E2806988A0B25FFA8BF5081AA842C0F276
:104F0000DD80DDF820A0059802220AF10A0117F0E1
:104F1000A3FC4DA849A9102217F046FC002800F078
:104F200093805046CDF824B0574650F828BF5845D6
:104F300000F09380069D82460146D34500F08E80A6
:104F4000D84638F8080F48457BD30799884200F2C5
:104F5000B8809BF80F000BF11001012804D10598CF
:104F6000022217F079FC4DA9084649A9102217F032
:104F70001BFC002865D1284659460DF068FB9BF8BC
:104F80002610019A01F0040142B139B15B9A22B1B5
:104F9000B8F800205B9B9A4200D15A98099A1206F1
:104FA00002D06A88099E11E0002840F0A480BBF876
:104FB0000A309E1C1A460393FD2B88BF4FF0FF3624
:104FC0006A88F3B2951E9D42B8BF2E46A3B2F5B2D1
:104FD0000996D21AAA4273DB002871D10398BBF854
:104FE0000A2080B282426BD10698807900070DD4E6
:104FF00061B1009AB8F800000DF12A03D1B2013274
:1050000023F81100D0B200927C2859D8201D049EAC
:10501000022243460CF044FF069F5846394603F0EF
:10502000D0F90346A01D81B2A81E82B23046FDF71A
:105030006CFE2C447988A0B2081AA8423D46089F0D
:105040003FDBDBF800B078E775B1042D19D0122DE5
:1050500034D10898069D007B0EE0069DDDF81C808B
:10506000DDF824B0049E24E00898069D007B01280A
:1050700002D14FF0040B0BE04FF0120B022807D0C7
:105080003EE008984FF0040B069D007B012839D1C3
:10509000201D02223B460CF003FFA01D089F81B299
:1050A000ABF1020007F10E0382B23046FDF72DFE90
:1050B0005C443F6813E7CDF824B002E0CDF824B09B
:1050C000069DA0B2049E03280AD30099080609D0C1
:1050D000C9B20DF12A02284604F02EFC6925E1E64A
:1050E0000A20D1E6306A092101710999306A4171BB
:1050F000201DB080CDE6B8F800200821049BC6E64C
:10510000122000E004200990DBE700BFE43E030822
:105110001C5C00202DE9F04FC3B0054688889346FB
:10512000092801D3C0070AD104200E2100225B46C2
:105130000025FFF755F9284643B0BDE8F08F0E462D
:1051400069885846FDF7BCFD08B19525F3E7B0889E
:105150000DF58579012405381FFA80F800200190AB
:1051600001201FFA80FAC24559D2043002224B4670
:1051700081B23046FDF706FDBDF80A0103F0A0FB41
:10518000002848D001460289BDF80A0182420BD1AD
:105190006888A2B290423BD90A7B102701F10E0326
:1051A000012A08BF022727E041AA04F02DFC90BB8A
:1051B000419928460DF04BFA00283ED1A0B26988EB
:1051C000814225D9A879000741980FD490F826107C
:1051D00049070BD5019B01890DF10A07DAB20133AA
:1051E00027F81210D9B201937C2918D8294647898B
:1051F00003F0E7F803466888001B80B2B84238BF66
:1052000007463A46201D81B25846FDF77EFD3C44D4
:105210000AF10200A5E7BDF80A2101200FE0A0B2C3
:10522000022810D3019908060FD0C9B20DF10A0265
:10523000284604F081FB69257DE7BDF80A210E218F
:105240005B46FFF7CDF8002575E7DBF820000F215E
:105250000171201DABF80400F5E72DE9FC4106467D
:1052600088881446072822D1086A0DF07DF985B296
:10527000284603F025FB20B301460089A8421BD134
:10528000206A0B2201F10E030271102220460E7BD0
:10529000012E08BF02220521FDF737FD1120012E46
:1052A00008BF032001040CD00430A0800EE00420CD
:1052B0000A210DF03BF80AE001AA284604F0A4FBFD
:1052C00040B101200A212A460DF0A0FA0025284607
:1052D000BDE8FC81019930460DF0B9F90028F1D103
:1052E000019991F82600400708D5B079000705D448
:1052F0003046002204F02CFB6925E8E7718820463F
:10530000FDF7DEFC08B19525E1E7206A0B2101716C
:1053100001983146B6F80280478903F052F80346F7
:10532000A8F1010080B2B84238BF074620463A468D
:105330000521FDF7EAFC781CB4E770B52AB10546F3
:105340004088049E0F38B04201DA922070BD0C46AE
:10535000086AD2210DF0F6F93246FDF7D6FCF01DB1
:105360002146A080288811F0B3F8002070BDB0B5A8
:1053700022B14088049D0338A84201DA9220B0BDD2
:105380000C46086A52210DF0DDF92A46FDF7BDFCF6
:10539000E81DA0800020B0BD2DE9F04132B10446E7
:1053A0004088DDF818800338404501DA0DF07ABAFC
:1053B0000E4608F103001D46174681B23046FDF740
:1053C0007FFC08B10DF01FBA306A122142462B460D
:1053D0000171380A316A88714F7130460721FDF733
:1053E00094FC13200CF054BD2DE9FC41054688883F
:1053F0001446072802D2002704201AE0086A0E4645
:1054000002234179807901AA41EA00272846B9B2EE
:1054100000F0B8F868B9B0880199A0F10708887B56
:1054200008B1888900E048891FFA88F2824207D9CA
:105430000D20BAB212210DF0E9F90020BDE8FC817F
:1054400091F8260080070ED5A87980070BD44FF479
:1054500000301FFA88F233460090284604F0EAFE36
:105460006920BDE8FC810846294602F0AAFF0746EC
:105470001FFA88F2304607213B46FDF783FB01996E
:10548000887B08B1A1F80A80206A132202710520E6
:105490003A46A080284602F0ACFFCEE7B0B50C46F5
:1054A00091F82710008815460FF050F9012D21D1F1
:1054B00094F825104A0602D510F0400228D0CA07F9
:1054C00004D010F0600F23D0C20621D58A0744BF54
:1054D00042B2002A43D411F0040102D010F01002AD
:1054E00026D009B100073CD494F82400022121EA17
:1054F0004000B0BD082D03D1C10644BF0420B0BD9B
:1055000094F92510B1F1FF3F04DC10F0400201D105
:105510000520B0BDC9B20A070CD4CA0644BF42B2C6
:10552000002A1CD411F020010DD010F010020AD175
:105530000F20B0BD10F0600FEAD0082DEDD010F0B4
:105540001002E5D0E9E709B100070AD4042D0AD01A
:10555000022D0DD194F8240080070FD510E008200B
:10556000B0BD0C20B0BD94F82400400706D507E07C
:10557000082D05D194F82400000701D40320B0BD04
:105580000020B0BDF8B5064608461C4615460F4635
:1055900003F096F950B101460089B84204BF0320D8
:1055A000F8BD38462A4604F02FFA08B10120F8BDAC
:1055B000296830462246BDE8F840FFF76FBF00007B
:1055C000B0B5054680880C460B280DD10A49204607
:1055D000102217F041F904F10C0328460921022298
:1055E000BDE8B040FDF7CEBA284609211022234677
:1055F000BDE8B040FDF7C6BAE43E03082DE9FE431E
:105600008046086A89460F2708260179522908BF73
:10561000032708BF0426B9F804301C1FA3B29F4219
:105620000CD8B8F80250AB4208D85AB1D22909D1E7
:10563000B8F80000494610F099FF08B1BDE8FE83B4
:10564000D9F820004179807902AA334641EA002046
:1056500081B24046FFF796FF0028EFD1E41B029984
:105660008889A6B28642E9D891F8260080070DD530
:1056700098F80600400709D44FF4802032464B4684
:105680000090404604F0D6FDBDE8FE830846414642
:1056900002F097FE07464846072132463B46FDF793
:1056A00071FA0299887B00B14C8140463A4602F07B
:1056B000A0FEBDE8FE8370B5064608881C4613466A
:1056C0000D46022204300CF0EBFB28880222234610
:1056D000811C063029800CF0E3FB288802302880EA
:1056E00070BD00002DE9F0418AB041F20C06C4F211
:1056F000026604460020A6F10C08099040460BF013
:10570000DDFB00286CD1306800F0030009903068A0
:1057100020F00300306056F8040C40F0004020F008
:10572000170046F8040C00BF56F8040C00280ED5EC
:1057300056F8040CB0F1FF3F09DC56F8040CB0F148
:10574000FF3F04DC56F8040CB0F1FF3FECDD099894
:10575000316804F10C0221F0030108433060004677
:10576000004607CA04F11C07CDE90601D4E90D0182
:10577000009201AAA8CF0BC2606C42F20001CBF2EA
:1057800000418842049505970CD00121C8F2000120
:105790008842D6F8FC0212BF20F44000012161F3D8
:1057A000975004E0D6F8FC02022161F39750C6F846
:1057B000FC02A068716821F000510843706006A9DE
:1057C00040460BF037FC58B9206B316821F40011CA
:1057D0000143304640F80C1969460BF065FC18B1DE
:1057E00001200AB0BDE8F08194F83C00B16B0F23B2
:1057F00021F001010843B063206CB16B21F002017C
:105800000843B063B068D4E90A1220F007000843E7
:10581000B060B06820F0700040EA0210B060D4E9D7
:105820001110F269C1F3836700F01F0083409A43AF
:1058300007FA00F01043F061E06CB26800EA012062
:1058400022EA01214FF60072C0F2FF3210400843F5
:10585000B060206843F27051C2F20001086000207D
:105860000AB0BDE8F0810000002000F02DBB000070
:10587000012000F029BB0000022000F025BB000041
:105880002DE9F04F89B090460E468AB116F00F010F
:10589000894608BF4FF01009002E08BF8946A6EBC5
:1058A000090645F60C4BC2F2000B46B92DE000BFCD
:1058B0004FF0000945F60C4BC2F2000B2EB3A0F1DD
:1058C00010040DF1140A00BF54F8100FDBE9007545
:1058D00000BA78406168D4F808E0059008BADBE9BE
:1058E00002326840D4F80CC006909EFA8EF0584000
:1058F00007909CFA8CF0504008905046594609F0A9
:10590000C5FF103EE0D104F11000B8F1000F00F027
:10591000CF804FF0000EB9F1000FCDF820E0CDE9B7
:1059200006EECDF814E053D0A9F10102032A09F0E4
:10593000030C05D20023BCF1000F23D148E000BFC7
:1059400005AB09F01C07043BC7F1000A441C6FF0CB
:10595000030600BFA51953F8042FE9782F7942EA0E
:1059600001616A7941EA0741AD7941EA02210436D1
:105970000AEB0602294304321960EBD1331DBCF156
:10598000000F25D01826C15C26EAC30223F00304C9
:1059900005AF3D5991402943BCF1010F395117D052
:1059A000591C425C26EAC10421F003017D58A24043
:1059B0002A43BCF1020F7A500AD0991C1822405C8D
:1059C00022EAC10221F003017B589040184378502D
:1059D00001A80146CDE903EECDE901EE09F056FF3D
:1059E00001AE63CE4FF0870C420042EAD1730CEA5D
:1059F000E070490041EAD572690041EAD67180EA57
:105A0000460AB9F10F0F0193CDE90221CDF810A09C
:105A100020D8182525EAC905802404FA05F509F0DF
:105A20001C040DF1140E5EF8047076003D430CEA80
:105A3000E3775B0043EAD273520042EAD172490035
:105A400041EAD67187EA4A0A4EF80450CDE901329C
:105A5000CDE9031ADBE90076DBE902EC7B40DDE906
:105A600005707240DDE907457B405040069081EAB1
:105A70000E00604007908AEA0C006840089005A874
:105A80005946059309F002FF09F02CFF9BE80F002F
:105A900009BA00BA12BA1BBA059006910792089388
:105AA000C8F80C30C8F80820C8F80410C8F800007E
:105AB00009B0BDE8F08F000010B5044609F036FFCC
:105AC0000120214609F062FF45F60C40C2F20000B9
:105AD0000021C0E90011C0E9021110BDF0B585B088
